:100000000C942A000C9447000C9447000C94470071
:100010000C9447000C9447000C9447000C94470044
:100020000C9447000C9447000C9447000C94470034
:100030000C9447000C9447000C9447000C94470024
:100040000C9447000C9447000C9447000C94470014
:100050000C94470011241FBECFE5D8E0DEBFCDBF12
:1000600010E0A0E6B0E0E8E7F1E002C005900D92F4
:10007000AE36B107D9F710E0AEE6B0E001C01D9290
:10008000A037B107E1F70E945A000C94BA000C9413
:1000900000005D9BFECF8CB9089520E004C05D9BFD
:1000A000FECFECB92F5FFC01E20FF11DE081EE23E2
:1000B000B1F70895CF93DF9310BC83E389B988E14A
:1000C0008AB98EE880BDC8ECD0E080E690E00E945E
:1000D0004D0080E197E2FE013197F1F70197D9F7E2
:1000E000F4CF5F9BFECF8CB108950F931F93DF93E6
:1000F000CF93CDB7DEB764970FB6F894DEBF0FBECF
:10010000CDBF5F9BFECF9CB1198280E09E012F5F27
:100110003F4F08C05F9BFECFF901E80FF11D9083B0
:100120009CB18F5F9D30B1F78E010F5F1F4FF801BB
:10013000E80FF11D1082C8016AE670E00E94AF006E
:1001400010936F0000936E0064960FB6F894DEBFB4
:100150000FBECDBFCF91DF911F910F910895FB018D
:10016000DC010D900020E9F7119701900D9200201D
:08017000E1F70895F894FFCFB8
:0E017800447A69616C61210A0D000A0D0000D5
:00000001FF
