:100000000C942A000C9447000C9447000C94470071
:100010000C9447000C9447000C9447000C941B0769
:100020000C9447000C9447000C9454090C9447001E
:100030000C9447000C9447000C9447000C94470024
:100040000C9447000C9447000C9447000C94470014
:100050000C94470011241FBECFE5D8E0DEBFCDBF12
:1000600011E0A0E6B0E0E0E2F7E202C005900D92F8
:10007000A837B107D9F711E0A8E7B1E001C01D9298
:10008000AE38B107E1F70E94E2120C948E130C9483
:100090000000EF92FF920F931F937B018C0120E0F1
:1000A00030E040E05FE40E94490388238CF0C801FF
:1000B000B70120E030E040E05FE40E94C1010E940F
:1000C000A9039B01AC01205030404040504806C07D
:1000D000C801B7010E94A9039B01AC01B901CA0183
:1000E0001F910F91FF90EF900895A0E0B0E0EBE733
:1000F000F0E00C944C13DC012B01FA019C9192303E
:1001000008F439C1EB018881823008F433C194309E
:1001100069F4843009F02FC111969C91119789815F
:10012000981709F428C1AEE6B0E025C1843009F47F
:1001300021C18230A9F4923009F01DC19A01AD01AC
:1001400088E0EA010990AE01E90109929E0181501F
:10015000C1F7E201898111969C918923818308C1AD
:10016000923009F407C112962D903C901397EB0141
:100170008A819B811496AD90BD90CD90DC901797AD
:10018000EC80FD800E811F819101281B390BB90184
:1001900037FF04C066277727621B730B6032710537
:1001A0000CF061C0121613066CF537014801062EDB
:1001B00004C096948794779467940A94D2F721E0C8
:1001C00030E040E050E004C0220F331F441F551FB1
:1001D0006A95D2F721503040404050402E213F21B7
:1001E00040235123211531054105510521F021E01E
:1001F00030E040E050E079018A01E628F72808293C
:1002000019293CC0232BD1F1260E371E350146019A
:10021000062E04C096948794779467940A94D2F734
:1002200021E030E040E050E004C0220F331F441FC3
:10023000551F6A95D2F721503040404050402A2146
:100240003B214C215D21211531054105510521F04E
:1002500021E030E040E050E059016A01A628B728CB
:10026000C828D9280BC0821593052CF01C01AA249C
:10027000BB24650103C0EE24FF24870111969C91E5
:10028000D20111968C91981709F445C0992339F041
:10029000A80197012A193B094C095D0906C0A6016E
:1002A00095012E193F09400B510B57FD08C01182D3
:1002B0003382228224833583468357831DC081E0A5
:1002C00081833382228288279927DC01821B930B4A
:1002D000A40BB50B84839583A683B7830DC0220F2F
:1002E000331F441F551F24833583468357838281E0
:1002F000938101979383828324813581468157813D
:10030000DA01C9010197A109B1098F5F9F4FAF4F72
:10031000BF4328F30BC0918333822282EA0CFB1C7B
:100320000C1D1D1DE482F5820683178383E0808304
:10033000248135814681578157FF1AC0C901AA27F8
:1003400097FDA095BA2F81709070A070B0705695EF
:10035000479537952795822B932BA42BB52B848318
:100360009583A683B7838281938101969383828349
:10037000DF0101C0D201CD01CDB7DEB7E2E10C94BF
:100380006813A0E2B0E0E7ECF1E00C945813698345
:100390007A838B839C832D833E834F835887E9E048
:1003A000EE2EF12CEC0EFD1ECE010196B7010E943F
:1003B0009A058E010F5E1F4FCE010596B8010E946F
:1003C0009A058A8991E089278A8BC701B801AE0115
:1003D000475E5F4F0E9475000E94C504A096E6E04C
:1003E0000C947413A0E2B0E0E8EFF1E00C94581321
:1003F00069837A838B839C832D833E834F835887C5
:10040000F9E0EF2EF12CEC0EFD1ECE010196B701A6
:100410000E949A058E010F5E1F4FCE010596B8010E
:100420000E949A05C701B801AE01475E5F4F0E9466
:1004300075000E94C504A096E6E00C947413A0E237
:10044000B0E0E5E2F2E00C944C1369837A838B838D
:100450009C832D833E834F835887CE010196BE0136
:10046000675F7F4F0E949A05CE010596BE016F5EC1
:100470007F4F0E949A059985923088F08989823051
:10048000C8F0943019F4823051F404C0843029F457
:10049000923081F48EE690E0C6C0923049F420E0BC
:1004A0009A858A89981321E02A87CE010996BBC0D4
:1004B000823049F420E09A858A89981321E02A8BBA
:1004C000CE014196B0C02D843E844F8458886D88FB
:1004D0007E888F88988CEE24FF248701AA24BB2471
:1004E000650140E050E060E070E0E0E0F0E0C10174
:1004F00081709070892BE9F0E60CF71C081D191D1E
:100500009A01AB012A0D3B1D4C1D5D1D80E090E062
:10051000A0E0B0E0E614F7040805190520F481E036
:1005200090E0A0E0B0E0BA01A901480F591F6A1F8E
:100530007B1FAA0CBB1CCC1CDD1C97FE08C081E0F5
:1005400090E0A0E0B0E0A82AB92ACA2ADB2A3196B6
:10055000E032F10549F0660C771C881C991C569412
:10056000479437942794C3CFFA85EA892B893C892D
:100570008B859C85280F391F2E5F3F4F17C0CA01FE
:1005800081709070892B61F016950795F794E79428
:1005900080E090E0A0E0B0E8E82AF92A0A2B1B2BC3
:1005A00076956795579547952F5F3F4F77FDE7CF36
:1005B0000CC0440F551F661F771F17FD4160EE0CDE
:1005C000FF1C001F111F21503040403090E05907A0
:1005D00090E0690790E4790760F32B8F3C8FDB0193
:1005E000CA018F779070A070B07080349105A1051A
:1005F000B10561F447FD0AC0E114F10401051105DC
:1006000029F0405C5F4F6F4F7F4F40781A8EFE1786
:1006100011F081E08A8F4D8F5E8F6F8F78A383E01A
:10062000898FCE0149960E94C504A096E2E10C9400
:100630006813A8E1B0E0EFE1F3E00C94581369838C
:100640007A838B839C832D833E834F83588789E0F5
:10065000E82EF12CEC0EFD1ECE010196B7010E9492
:100660009A058E010F5E1F4FCE010596B8010E94BC
:100670009A058985823040F08989823028F0C70147
:10068000B8010E94120601C08FEF6896E6E00C9454
:100690007413A8E1B0E0EFE4F3E00C94581369831D
:1006A0007A838B839C832D833E834F83588789E095
:1006B000E82EF12CEC0EFD1ECE010196B7010E9432
:1006C0009A058E010F5E1F4FCE010596B8010E945C
:1006D0009A058985823040F08989823028F0C701E7
:1006E000B8010E94120601C08FEF6896E6E00C94F4
:1006F0007413A8E1B0E0EFE7F3E00C9458136983BA
:100700007A838B839C832D833E834F83588789E034
:10071000E82EF12CEC0EFD1ECE010196B7010E94D1
:100720009A058E010F5E1F4FCE010596B8010E94FB
:100730009A058985823040F08989823028F0C70186
:10074000B8010E94120601C081E06896E6E00C94B0
:100750007413ACE0B0E0EFEAF3E00C945C1369834F
:100760007A838B839C83CE010196BE016B5F7F4FA2
:100770000E949A058D81823061F1823050F184307F
:1007800021F48E81882351F12EC02F81388537FDC9
:1007900020C06E812F3131051CF06623F9F023C093
:1007A0008EE190E0821B930B29853A854B855C8511
:1007B00004C056954795379527958A95D2F76623B5
:1007C000B1F050954095309521953F4F4F4F5F4F79
:1007D0000EC020E030E040E050E009C02FEF3FEFD6
:1007E0004FEF5FE704C020E030E040E050E8B9019F
:1007F000CA012C96E2E00C947813A8E0B0E0E3E0A4
:10080000F4E00C9454137B018C0161157105810592
:10081000910519F482E0898360C083E089838EE1C9
:10082000C82ED12CDC82CB82ED82FE820F8318870A
:10083000C801B7010E947604FC013197F7FF3BC065
:10084000222733272E1B3F0B57016801022E04C0BD
:10085000D694C794B794A7940A94D2F740E050E096
:1008600060E070E081E090E0A0E0B0E004C0880FBC
:10087000991FAA1FBB1F2A95D2F70197A109B10999
:100880008E219F21A023B1230097A105B10521F05E
:1008900041E050E060E070E04A295B296C297D2945
:1008A0004D835E836F8378878EE190E08E1B9F0B74
:1008B0009C838B8312C0309781F00E2E04C0EE0C07
:1008C000FF1C001F111F0A94D2F7ED82FE820F83D6
:1008D0001887CE1ADF0ADC82CB821A82CE010196FB
:1008E0000E94C5042896EAE00C947013EF92FF92E0
:1008F0000F931F937B018C0180E0E81680E0F806DF
:1009000081E0080780E0180788F48FEFE816F1040B
:100910000105110531F028F088E090E0A0E0B0E09A
:1009200017C080E090E0A0E0B0E012C080E0E816E0
:1009300080E0F80680E0080781E0180728F088E1E9
:1009400090E0A0E0B0E004C080E190E0A0E0B0E082
:1009500020E230E040E050E0281B390B4A0B5B0BF3
:1009600004C016950795F794E7948A95D2F7F70196
:10097000EA58FF4F8081281B310941095109C901FB
:100980001F910F91FF90EF900895DF92EF92FF92E9
:100990000F931F93FC01E480F58006811781D180BD
:1009A0008081823048F480E090E0A0E1B0E0E82A65
:1009B000F92A0A2B1B2BA5C0843009F49FC0823072
:1009C00021F4EE24FF24870105C0E114F1040105A0
:1009D000110519F4E0E0F0E096C0628173819FEFA9
:1009E000623879070CF05BC022E83FEF261B370B1B
:1009F0002A3131052CF020E030E040E050E02AC000
:100A0000B801A701022E04C07695679557954795C2
:100A10000A94D2F781E090E0A0E0B0E004C0880F33
:100A2000991FAA1FBB1F2A95D2F70197A109B109E7
:100A30008E219F21A023B1230097A105B10521F0AC
:100A400081E090E0A0E0B0E09A01AB01282B392BC7
:100A50004A2B5B2BDA01C9018F779070A070B070C0
:100A600080349105A105B10539F427FF09C0205C48
:100A70003F4F4F4F5F4F04C0215C3F4F4F4F5F4F81
:100A8000E0E0F0E02030A0E03A07A0E04A07A0E470
:100A90005A0710F0E1E0F0E079018A0127C06038E0
:100AA000710564F5FB01E158FF4FD801C7018F774D
:100AB0009070A070B07080349105A105B10539F433
:100AC000E7FE0DC080E490E0A0E0B0E004C08FE35A
:100AD00090E0A0E0B0E0E80EF91E0A1F1B1F17FF10
:100AE00005C016950795F794E794319687E016951B
:100AF0000795F794E7948A95D1F705C0EE24FF2473
:100B00008701EFEFF0E06E2F679566276795902FCE
:100B10009F77D794DD24D7948E2F8695492F462B27
:100B2000582F5D29B701CA011F910F91FF90EF90D7
:100B3000DF900895FC01DB01408151812281622F09
:100B40006F7770E0221F2227221F9381892F880F41
:100B5000822B282F30E0991F9927991F11969C937B
:100B6000119721153105A9F541155105610571054B
:100B700011F482E037C082E89FEF13969C938E9326
:100B800012979A01AB0167E0220F331F441F551FD4
:100B90006A95D1F783E08C930DC0220F331F441F59
:100BA000551F12968D919C911397019713969C93C4
:100BB0008E931297203080E0380780E0480780E469
:100BC000580758F314962D933D934D935C931797C4
:100BD00008952F3F310579F44115510561057105DF
:100BE00019F484E08C93089564FF03C081E08C9332
:100BF00012C01C9210C02F57304013963C932E9376
:100C0000129783E08C9387E0440F551F661F771F70
:100C10008A95D1F7706414964D935D936D937C9390
:100C2000179708951F93DC01FB019C91923008F403
:100C300047C08081823008F443C0943051F411964B
:100C40001C91843099F58181682F70E0611B7109D6
:100C50003FC0843021F0923031F48230B9F181818B
:100C6000882389F12DC011961C9111978230F1F0E3
:100C700081811817D9F412962D913C911397828196
:100C800093818217930794F028173907BCF01496C4
:100C90008D919D910D90BC91A02D2481358146812F
:100CA0005781281739074A075B0718F4112341F0C9
:100CB0000AC082179307A407B50740F4112319F05F
:100CC00061E070E005C06FEF7FEF02C060E070E0B0
:100CD000CB011F91089511B882E080B90895282FA3
:100CE00084EA86BF8FEF9FEF03C006B607FC03C000
:100CF0000197D9F71DC081B1887F883011F080310C
:100D0000B9F423B984E886BF8FEF9FEF03C006B61E
:100D100007FC03C00197D9F70BC091B1987F9831B8
:100D200011F480E0089580E0903419F081E0089596
:100D300081E0089544EA34E824E946BF06B607FE98
:100D4000FDCF91B1987F983011F09031B1F783B910
:100D500036BF06B607FEFDCF91B1987F903211F0F5
:100D6000983529F426BF06B604FCFDCFE6CF0895DA
:100D70000E946F06089584E986BF8FEF9FEF03C03E
:100D800006B604FE02C00197D9F7089583B984E836
:100D900086BF8FEF9FEF03C006B607FC03C0019725
:100DA000D9F705C081B190E0887F883209F091E0E1
:100DB000892F089584EC86BF8FEF9FEF05C006B69C
:100DC00007FE02C083B108950197C9F780E0089536
:100DD00084E886BF8FEF9FEF05C006B607FE02C00E
:100DE00083B108950197C9F780E008951F9310E03B
:100DF000812F880F0E946F060E94BB061F5F10386C
:100E0000B9F71F91089520E12FBD85E08EBD8AE7D7
:100E100090E09BBD8ABD29BF08958FB7F8942091BB
:100E200078013091790140917A0150917B018FBF17
:100E3000B901CA0108951F920F920FB60F921124A3
:100E40008F939F93AF93BF9380917C0190917D018D
:100E5000A0917E01B0917F010196A11DB11D8093EB
:100E60007C0190937D01A0937E01B0937F018091DE
:100E7000780190917901A0917A01B0917B010F9650
:100E8000A11DB11D8093780190937901A0937A01FF
:100E9000B0937B0190918001892F835A80938001C8
:100EA0008D37B0F0905290938001809178019091AD
:100EB0007901A0917A01B0917B010196A11DB11D2C
:100EC0008093780190937901A0937A01B0937B018C
:100ED000BF91AF919F918F910F900FBE0F901F9078
:100EE000189583B7886083BF83B7846083BF82E32C
:100EF0008CBF89B7826089BF78940895CF92DF92C2
:100F0000EF92FF921F936B017C01142F0E947107D7
:100F1000113009F042C0B89AB99ABA9ABB9A20E047
:100F200030E040E050E080918101882309F4C398CB
:100F300080918101813009F4C19A809181018230D0
:100F400009F4C09880918101833009F4C29A80919C
:100F50008101843009F4C19880918101853009F4C0
:100F6000C39A80918101863009F4C29880918101F1
:100F7000873009F4C09A809181018830A0F21092E4
:100F800081012F5F3F4F4F4F5F4FC216D306E406DC
:100F9000F50648F6C098C39844C0123009F041C025
:100FA000D09AD19AD29AD39A20E030E040E050E033
:100FB00080918101882309F4DB988091810181303F
:100FC00009F4D99A80918101823009F4D8988091EE
:100FD0008101833009F4DA9A80918101843009F427
:100FE000D99880918101853009F4DB9A8091810143
:100FF000863009F4DA9880918101873009F4D89A13
:10100000809181018830A0F2109281012F5F3F4FC3
:101010004F4F5F4FC216D306E406F50648F6D89840
:10102000DB981F91FF90EF90DF90CF900895CF92C3
:10103000DF92EF92FF921F936B017C01142F0E94AD
:101040007107113009F041C0B89AB99ABA9ABB9A9F
:1010500020E030E040E050E080918101882309F4F5
:10106000C09880918101813009F4C29A80918101F8
:10107000823009F4C39880918101833009F4C19AC8
:1010800080918101843009F4C2988091810185307A
:1010900009F4C09A80918101863009F4C198809149
:1010A0008101873009F4C39A809181018830A0F2D0
:1010B000109281012F5F3F4F4F4F5F4FC216D306F3
:1010C000E406F50648F6C09844C0123009F041C065
:1010D000D09AD19AD29AD39A20E030E040E050E002
:1010E00080918101882309F4D89880918101813011
:1010F00009F4DA9A80918101823009F4DB988091B9
:101100008101833009F4D99A80918101843009F4F6
:10111000DA9880918101853009F4D89A8091810113
:10112000863009F4D99880918101873009F4DB9ADF
:10113000809181018830A0F2109281012F5F3F4F92
:101140004F4F5F4FC216D306E406F50648F6D8980F
:10115000DB981F91FF90EF90DF90CF900895EF9272
:10116000FF920F931F937B018C010E947107D09A0D
:10117000D19AD29AD39A89E0EE0CFF1C001F111F5E
:101180008A95D1F7C801B70128E631E040E050E088
:101190000E942A1379018A0120E030E040E050E00B
:1011A00080918101882311F4D89ADA988091810185
:1011B000813011F4D99ADB9880918101823011F449
:1011C000DA9AD89880918101833011F4DB9AD9980A
:1011D00080918101843020F3109281012F5F3F4F75
:1011E0004F4F5F4FE216F30604071507C8F61F912D
:1011F0000F91FF90EF900895EF92FF920F931F933E
:101200007B018C010E947107D09AD19AD29AD39A0D
:1012100020E030E040E050E080918101882311F42B
:10122000DB9AD99880918101813011F4DA9AD898AB
:1012300080918101823011F4D99ADB9880918101EB
:10124000833011F4D89ADA9880918101843020F3A8
:10125000109281012F5F3F4F4F4F5F4FE216F30611
:1012600004071507C8F61F910F91FF90EF9008959E
:10127000CF93DF93C1E0D0E062E070E080E090E0E7
:1012800041E00E947E0762E070E080E090E042E092
:101290000E947E07219681E0C130D80769F780E07F
:1012A00090E0DF91CF9108951F920F920FB60F92A9
:1012B00011248F93809181018F5F809381018F91A1
:1012C0000F900FBE0F901F90189510BC83E389B943
:1012D00088E18AB98EE880BD08955D9BFECF8CB908
:1012E000089520E004C05D9BFECFECB92F5FFC01A8
:1012F000E20FF11DE081EE23B1F708955F9BFECF71
:101300008CB108950F931F93DF93CF93CDB7DEB7C2
:10131000C456D0400FB6F894DEBF0FBECDBF5F9B62
:10132000FECF9CB1198280E09E012F5F3F4F08C025
:101330005F9BFECFF901E80FF11D90839CB18F5F99
:101340009034B1F78E010F5F1F4FF801E80FF11DC8
:101350009083C80160E670E00E94831310938601B9
:1013600000938501CC59DF4F0FB6F894DEBF0FBE56
:10137000CDBFCF91DF911F910F910895809176019C
:1013800008958091840110928401089590938301BF
:101390008093820108958091820190918301089544
:1013A000009719F420E030E019C001979C0140E05B
:1013B00050E060E070E006C0569547953795279558
:1013C0006F5F7F4FDA01C90180700097A105B105F9
:1013D00099F73070962F8827282B392BC90108954B
:1013E000AF92BF92CF92DF92EF92FF920F931F9333
:1013F0005C0170E080E090E020E03FE24AE350E0F2
:101400000E940B136C507E4F8F4F9F4F28EE33E09E
:1014100040E050E00E942A1379018A01CC24DD24A7
:10142000C801B701A60195010E940B1316950795F7
:10143000F794E7946E0D7F1D801F911F28EE33E017
:1014400040E050E00E942A13CA01B9011F910F9198
:10145000FF90EF90DF90CF90BF90AF9008956F9284
:101460007F928F929F92AF92BF92CF92DF92EF9234
:10147000FF920F931F933B014C0150E060E070E03E
:10148000CB01BA0120E03FE24AE350E00E940B1397
:101490006C507E4F8F4F9F4F28EE33E040E050E07E
:1014A0000E942A1379018A0157016801D694C794D2
:1014B000B794A794C401B30128EE33E040E050E0B4
:1014C0000E940B13A60EB71EC81ED91EC601B50179
:1014D000A80197010E942A13CA01B9011F910F9117
:1014E000FF90EF90DF90CF90BF90AF909F908F9044
:1014F0007F906F900895EF92FF920F931F93CF9379
:10150000DF93182F7B01042F809176010E946F06D4
:10151000812F0E94C6068091760181600E94B806E4
:10152000E7010AC0023018F00E94DA0602C00E94E9
:10153000E8068883015021960023A1F70E94BB068C
:10154000DF91CF911F910F91FF90EF9008950F932E
:101550001F93CF93DF93182FEB01042F8091760117
:101560000E946F06812F0E94C60604C089910E94C6
:10157000C60601500023D1F70E94BB06DF91CF9130
:101580001F910F9108956F927F928F929F92AF92C9
:10159000BF92CF92DF92EF92FF920F931F93182F7B
:1015A000809176010E946F06812F0E94C60680916D
:1015B000760181600E94B8060E94DA06682E7724C0
:1015C00088249924962C8824772466240E94DA069D
:1015D000A82E0E94DA06E82E0E94E806BB24CC243E
:1015E000DD246501BB24AA246A287B288C289D2839
:1015F00090E0A0E0B0E0682A792A8A2A9B2A0E941B
:10160000BB06FF2400E010E0102F0F2DFE2CEE246F
:10161000E628F72808291929B701C8011F910F9159
:10162000FF90EF90DF90CF90BF90AF909F908F9002
:101630007F906F900895EF92FF920F931F93182F52
:10164000809176010E946F06812F0E94C6068091CC
:10165000760181600E94B8060E94DA06F82EEE2418
:101660000E94E806082F0E94BB0610E00E291F29E1
:10167000C8011F910F91FF90EF90089584E40E949C
:101680001B0BA0E0B0E0BC01CD010E94FD0320E0F7
:1016900030E040E05CE30E941F0208951F93182F82
:1016A000809176010E946F06812F0E94C60680916C
:1016B000760181600E94B8060E94E806182F0E94F9
:1016C000BB06812F1F9108950F931F938C0181E01A
:1016D0000E944E0B982F92959170F8019083982F4D
:1016E00096959695969591709283982F9695969546
:1016F000917091838295869586958370982F9170CD
:101700009383869584831F910F910895882331F4E4
:1017100080E50E944E0B8F5F880F0895813011F095
:101720008FEF089580E70E944E0B8F5F880F08951A
:101730000F931F93CF93DF938C01EB0180E00E9406
:10174000860B8883198286E40E944E0B90E00196F6
:101750009D838C8368810E94F0096A877B878C87D0
:101760009D8781E50E941B0B282F30E002C0220FCD
:10177000331F9A95E2F72F5F3F4F3F832E83C901B6
:1017800068810E94F0096E877F87888B998B81E042
:101790000E94860B8A831B8281E70E941B0B282FE5
:1017A00030E002C0220F331F9A95E2F72F5F3F4FC0
:1017B00039872887F8018381882331F08E819F81C2
:1017C000281B390B39872887888599856A810E946B
:1017D000F0096A8B7B8B8C8B9D8BDF91CF911F9156
:1017E0000F9108950F931F93DF93CF93CDB7DEB77B
:1017F0006B970FB6F894DEBF0FBECDBF8E010F5FA3
:101800001F4FC8010E94640BC801BE016A5F7F4F71
:101810000E94980B8981882329F426E33BE040E06D
:1018200050E008C0288939894A895B892C57324F92
:101830004F4F5F4F8B81882369F088899989AA89E6
:10184000BB898E549D4FAF4FBF4F880F991FAA1F62
:10185000BB1F0BC08A81882361F088899989AA8976
:10186000BB898C569D4FAF4FBF4F280F391F4A1F62
:101870005B1F8C81882361F08C899D89AE89BF892B
:101880008C569D4FAF4FBF4F280F391F4A1F5B1F0C
:101890008D81882361F0888D998DAA8DBB8D8A5D9D
:1018A0009D4FAF4FBF4F280F391F4A1F5B1F20931B
:1018B0008A0130938B0140938C0150938D01B901C3
:1018C000CA016B960FB6F894DEBF0FBECDBFCF91A5
:1018D000DF911F910F910895DF92EF92FF920F9386
:1018E0001F93D82E7A018B01809176010E946F069A
:1018F0008D2D0E94C606812F9927AA27BB270E94FB
:10190000C606C801AA27BB270E94C606BB27A12F6F
:10191000902F8F2D0E94C6068E2D0E94C6060E9413
:10192000BB061F910F91FF90EF90DF900895FF92FB
:101930000F931F93182FF62E072F809176010E9488
:101940006F06812F0E94C606802F0E94C6068F2D2B
:101950000E94C6060E94BB061F910F91FF9008953A
:10196000CF92DF92EF92FF920F931F93DF93CF936B
:10197000CDB7DEB76B970FB6F894DEBF0FBECDBF05
:101980006B017C0160322EE4720720E0820720E0C8
:10199000920708F47AC08E010F5F1F4FC8010E94A2
:1019A000640BC801BE016A5F7F4F0E94980B89815A
:1019B000882329F428EE38E040E050E008C0288968
:1019C00039894A895B892A5C344F4F4F5F4F8B813D
:1019D000882369F088899989AA89BB898E549D4F8B
:1019E000AF4FBF4F880F991FAA1FBB1F0BC08A8123
:1019F000882361F088899989AA89BB898C569D4F73
:101A0000AF4FBF4F280F391F4A1F5B1F0C810023A8
:101A100061F08C899D89AE89BF898C569D4FAF4FEF
:101A2000BF4F280F391F4A1F5B1F8D81882359F133
:101A3000DA01C9018A5D9D4FAF4FBF4FC816D90665
:101A4000EA06FB0610F1A7019601281B390B4A0B89
:101A50005B0BCA01B90148850E942F0A002321F0BF
:101A60008C859D85680F791FCB010E94D009BC0130
:101A700081E70E94970CC0928A01D0928B01E0927C
:101A80008C01F0928D0181E001C080E06B960FB671
:101A9000F894DEBF0FBECDBFCF91DF911F910F91A4
:101AA000FF90EF90DF90CF900895EF92FF920F9309
:101AB0001F937B018C0120E030E040E050E00E9469
:101AC000790387FD1CC0C801B70128EB3EEF4FEF3B
:101AD00053E40E941903181694F0C801B70120E0DE
:101AE00030E040E053E40E941F020E9449009B0145
:101AF000AC0184E4B9010E94970C81E001C080E050
:101B00001F910F91FF90EF9008950F931F93182F3F
:101B1000062F809176010E946F06812F0E94C606D3
:101B2000802F0E94C6060E94BB061F910F91089548
:101B3000682F616080E00E94850D0E940D07709300
:101B400088016093870117C0809182019091830181
:101B5000892B89F00E940D0720918701309188011F
:101B6000621B730B20918201309183012617370786
:101B700010F480E0089583E10E944E0B90E087709E
:101B80009070892B09F38BE061E00E94850D80E065
:101B900060E00E94850D81E008950F931F93CF931D
:101BA000DF93EC018B0180E861E00E94850D8FEFEF
:101BB00061E00E94850D80E060E00E94850D8FEF5E
:101BC00066E00E94850D83E80E944E0B682F6460DA
:101BD00083E80E94850D8FEF67E00E94850D81E804
:101BE00061E00E94850D80E861E00E94850D84E936
:101BF0006BE60E94850D83E860E00E94850D0E94DF
:101C00000D07709388016093870117C0809182014E
:101C100090918301892B89F00E940D072091870103
:101C200030918801621B730B2091820130918301F6
:101C30002617370710F480E035C083E80E944E0B6A
:101C4000882321F383E861E00E94850D82E90E94E8
:101C50004E0B982F9F779883881F8827881FF8013D
:101C6000808381E860E00E94850D8FEF66E00E942E
:101C7000850D83E80E944E0B682F6B7F83E80E94DE
:101C8000850D8FEF61E00E94850D80E061E00E948C
:101C9000850D8FEF60E00E94850D80E860E00E9476
:101CA000850D81E0DF91CF911F910F910895EF9203
:101CB000FF920F931F93DF93CF93CDB7DEB72C978F
:101CC0000FB6F894DEBF0FBECDBF7C010E940D079A
:101CD00070938801609387011BC08091820190916D
:101CE0008301892BA9F00E940D0720918701309173
:101CF0008801621B730B20918201309183012617AA
:101D0000370730F481E0809384010FEF1FEF42C06A
:101D100083E10E944E0B90E087709070892BE9F26E
:101D2000E114F10429F48EE10E941B0B8C012EC0FA
:101D300084E1BE016F5F7F4F4CE00E947B0A898186
:101D4000869586958695F70180879B8180E02C811A
:101D500030E0822B932B978386839F8180E02885B8
:101D600030E0822B932B93838283998580E02A85B0
:101D700030E0822B932B958384839B8580E02C8598
:101D8000022F10E0082B192B118300838BE061E0F8
:101D90000E94850DC8012C960FB6F894DEBF0FBEC9
:101DA000CDBFCF91DF911F910F91FF90EF900895DC
:101DB000CF93DF93EC0180E861E00E94850D8FEF07
:101DC00061E00E94850D80E060E00E94850D81E960
:101DD000609189010E94850D80E061E00E94850D7F
:101DE0008FEF60E00E94850D80E860E00E94850D25
:101DF00080E061E00E94850D0E940D0770938801CC
:101E0000609387011BC08091820190918301892B8F
:101E1000A9F00E940D072091870130918801621B73
:101E2000730B20918201309183012617370730F41C
:101E300081E0809384012FEF3FEF09C080E00E9492
:101E40004E0B80FDE0CFCE010E94570E9C01C901D0
:101E5000DF91CF91089580E061E00E94850D8FEFC2
:101E600061E00E94850D80E060E00E94850D81E9BF
:101E700060E00E94850D80E061E00E94850D8FEF9B
:101E800060E00E94850D0895EF92FF920F931F93DB
:101E90007B018C0180E861E00E94850D8FEF61E09D
:101EA0000E94850D80E060E00E94850D81E96091CF
:101EB00089010E94850D80E061E00E94850D8FEF11
:101EC00060E00E94850D80E860E00E94850DE114CD
:101ED000F10401051105B1F088EF0E941B0B00977A
:101EE00049F09C0140E050E0C801B7010E940B138B
:101EF0007B018C0184E0B801A7010E946C0C80E09A
:101F000064E002C080E062E00E94850D1F910F91A5
:101F1000FF90EF900895EF92FF920F931F93DF933E
:101F2000CF93CDB7DEB76B970FB6F894DEBF0FBE79
:101F3000CDBFF82E062FE62EE694EA94CE01019648
:101F40000E94640BCE010196BE016A5F7F4F0E9422
:101F5000980BFF2009F044C00E3079F00F3020F4C8
:101F60000C3009F0D4C006C0003151F0023109F044
:101F7000CEC009C087E568E108C087E560E305C019
:101F800087E560E402C087E560E50E94850D86E58F
:101F900068E00E94850D80E56E2D0E94850D6C899C
:101FA0007D898E899F89402F0E942F0ADC01CB01F9
:101FB0000E94D009BC0181E50E94970C688979894B
:101FC0008A899B89402F0E942F0A81E0613078071F
:101FD00010F06FEF01C0615086E40E94850D7CC057
:101FE00081E0F81609F093C00A3019F10B3020F4A3
:101FF000083009F08CC006C00C3051F10E3009F0E9
:1020000086C035C088E460E10E94850D87E468E001
:102010000E94850D82E362E00E94850D80E36CE002
:102020000E94850D8FEF61E00E94850D80E360E3E3
:1020300034C088E468E20E94850D87E468E00E946D
:10204000850D82E363E00E94850D80E369E01DC099
:1020500088E468E30E94850D87E468E00E94850DAE
:1020600082E363E00E94850D80E368E00EC088E4AF
:1020700068E40E94850D87E468E00E94850D82E394
:1020800063E00E94850D80E367E00E94850D8FEF7D
:1020900061E00E94850D80E360E20E94850D8FEF74
:1020A00060E00E94850D80E76E2D0E94850D688D91
:1020B000798D8A8D9B8D402F0E942F0A8C818823D9
:1020C00021F08C859D85680F791FCB010E94D00976
:1020D000BC0181E70E94970C60918A0170918B018D
:1020E00080918C0190918D010E94B00C81E00E9442
:1020F0004E0B182F81E062E00E94850D80E00E9467
:10210000980D81E0612F0E94850D81E001C080E083
:102110006B960FB6F894DEBF0FBECDBFCF91DF91A7
:102120001F910F91FF90EF900895FF920F931F93CF
:10213000DF93CF93CDB7DEB728970FB6F894DEBF05
:102140000FBECDBF882341F089E80E944E0B682F57
:10215000616089E80E94850D88E860E00E94850D35
:1021600080E861E00E94850D8FEF61E00E94850D9F
:1021700080E060E00E94850D81E90E944E0B809313
:10218000890180E061E00E94850D8FEF60E00E9490
:10219000850D80E860E00E94850D80E60E944E0B70
:1021A000682F626180E60E94850D60E070E080E843
:1021B0009EE30E94550D81E06FEF0E94850DCE01D8
:1021C0000196BE016E5F7F4F0E94CD0D882309F4FA
:1021D000E1C180EBBE016D5F7F4F46E00E947B0A4C
:1021E0008FEF61E00E94850D8FE460E00E94850D15
:1021F0008EE46CE20E94850D8FEF60E00E94850DF9
:1022000086EB64EB0E94850D8A81882311F470E0CF
:1022100001C07CE0F98060E040E050E0DE01139610
:1022200001E010E0842F471710F06F15A9F4869590
:1022300086958695FD01E80FF11DCA0187709070A3
:10224000980102C0220F331F8A95E2F7C9018095D9
:1022500020818223808312C0869586958695FD0114
:10226000E80FF11D808190E09A012770307002C064
:10227000959587952A95E2F780FD6F5F4F5F5F4FD9
:102280004033510579F680EBBE016D5F7F4F46E02C
:102290000E94A70A8FEF61E00E94850D80E060E058
:1022A0000E94850D8FEF60E00E94850D89E060E05F
:1022B0000E94850D80E160E00E94850D81E160E073
:1022C0000E94850D84E261E00E94850D85E26FEF3A
:1022D0000E94850D85E760E00E94850D8FEF61E02B
:1022E0000E94850D8EE46CE20E94850D88E460E01A
:1022F0000E94850D80E360E20E94850D8FEF60E013
:102300000E94850D80E369E00E94850D84E560E010
:102310000E94850D81E364E00E94850D82E363E005
:102320000E94850D80E463E80E94850D86E465E2E5
:102330000E94850D80E660E00E94850D87E260E0E6
:102340000E94850D80E566E00E94850D81E560E0D4
:102350000E94850D82E566E90E94850D86E568E0AC
:102360000E94850D87E560E30E94850D81E660E0AF
:102370000E94850D82E660E00E94850D84E660E0A3
:102380000E94850D85E660E00E94850D86E660EA84
:102390000E94850D8FEF61E00E94850D82E262E36D
:1023A0000E94850D87E464E10E94850D89E46FEF4A
:1023B0000E94850D8AE460E00E94850D8FEF60E049
:1023C0000E94850D8AE76AE00E94850D8BE760E038
:1023D0000E94850D88E761E20E94850D8FEF61E024
:1023E0000E94850D83E264E30E94850D82E460E033
:1023F0000E94850D84E46FEF0E94850D85E466E2FE
:102400000E94850D86E465E00E94850D80E460E40D
:102410000E94850D8EE066E00E94850D80E26AE1F3
:102420000E94850D83E460E40E94850D8FEF60E0DB
:102430000E94850D84E363E00E94850D85E364E4DA
:102440000E94850D8FEF61E00E94850D81E364E0BD
:102450000E94850D8BE469E00E94850D8CE465E0A7
:102460000E94850D8DE464E00E94850D8FEF60E091
:102470000E94850D84E460E00E94850D85E460E2A1
:102480000E94850D87E468E00E94850D88E468E27B
:102490000E94850D87E660E00E94850D80E764E07C
:1024A0000E94850D81E761E00E94850D82E76EEF55
:1024B0000E94850D86E760E00E94850D87E760E059
:1024C0000E94850D8FEF61E00E94850D8DE061E037
:1024D0000E94850D8FEF60E00E94850D80E861E02D
:1024E0000E94850D81E068EF0E94850D8FEF61E00D
:1024F0000E94850D8EE861E00E94850D80E061E01C
:102500000E94850D8FEF60E00E94850D80E860E0FD
:102510000E94850D8AE064E00E94850D84E80E9497
:102520004E0B682F6F7E84E80E94850D8BE061E082
:102530000E94850D0E94F20B60938A0170938B01BB
:1025400080938C0190938D0181E068EE0E94850D4F
:1025500060918A0170918B0180918C0190918D0125
:102560000E94B00C81E061E00E94850D80E40E9431
:10257000980D882379F081E062E00E94850D80E06B
:102580000E94980D882331F081E068EE0E94850D4D
:1025900081E001C080E028960FB6F894DEBF0FBE40
:1025A000CDBFCF91DF911F910F91FF9008951F93A1
:1025B000182F682F66958AE80E94850D1093760182
:1025C0001F910895CF93DF930E94650920E931E0C0
:1025D000C8ECD0E005C0CE010197F1F721503040A2
:1025E00021153105C1F70E94820980E991E0FE01C1
:1025F0003197F1F70197D9F783E690E00E947109CE
:1026000020E931E0E8CF83E085BB0E946B060E94A1
:10261000030778940895629FD001739FF001829F11
:10262000E00DF11D649FE00DF11D929FF00D839F61
:10263000F00D749FF00D659FF00D9927729FB00DFE
:10264000E11DF91F639FB00DE11DF91FBD01CF0111
:1026500011240895A1E21A2EAA1BBB1BFD010DC077
:10266000AA1FBB1FEE1FFF1FA217B307E407F50742
:1026700020F0A21BB30BE40BF50B661F771F881F1E
:10268000991F1A9469F760957095809590959B01B4
:10269000AC01BD01CF0108952F923F924F925F92FE
:1026A0006F927F928F929F92AF92BF92CF92DF9262
:1026B000EF92FF920F931F93CF93DF93CDB7DEB7C7
:1026C000CA1BDB0B0FB6F894DEBF0FBECDBF09945B
:1026D0002A88398848885F846E847D848C849B84B2
:1026E000AA84B984C884DF80EE80FD800C811B81C0
:1026F000AA81B981CE0FD11D0FB6F894DEBF0FBEEF
:10270000CDBFED010895FB01DC010D900020E9F73C
:10271000119701900D920020E1F70895F894FFCFF2
:102720000D0A0058203136203932400D0A000000D1
:102730000000000000000001020203030303040480
:10274000040404040404050505050505050505053F
:10275000050505050505060606060606060606061F
:102760000606060606060606060606060606060609
:1027700006060606060607070707070707070707EF
:1027800007070707070707070707070707070707D9
:1027900007070707070707070707070707070707C9
:1027A00007070707070707070707070707070707B9
:1027B000070707070707080808080808080808089F
:1027C0000808080808080808080808080808080889
:1027D0000808080808080808080808080808080879
:1027E0000808080808080808080808080808080869
:1027F0000808080808080808080808080808080859
:102800000808080808080808080808080808080848
:102810000808080808080808080808080808080838
:102820000808080808080808080808080808080828
:0828300008080808080852001E
:00000001FF
