:100000000C942A000C9434000C9434000C943400AA
:100010000C9434000C9434000C9434000C94340090
:100020000C9434000C9434000C9434000C94340080
:100030000C9434000C9434000C9434000C94340070
:100040000C9434000C9434000C9434000C94340060
:100050000C94340011241FBECFE5D4E0DEBFCDBF29
:100060000E9436000C944F000C94000010BC85E0F8
:1000700089B988E18AB986E880BD41E629E130E0A6
:100080005D9BFECF4CB988E99AE3F9013197F1F70E
:100090000197D9F7F5CF5D9BFECF8CB90895F89401
:0200A000FFCF90
:00000001FF
