:100000000C942A000C943C000C943C000C943C0092
:100010000C943C000C943C000C943C000C943C0070
:100020000C943C000C943C000C943C000C945E003E
:100030000C943C000C9470000C943C000C943C001C
:100040000C943C000C943C000C943C000C943C0040
:100050000C943C0011241FBECFE5D8E0DEBFCDBF1D
:1000600010E0A0E6B0E001C01D92A636B107E1F7AE
:100070000E944C000C94F9000C94000010BC83E327
:1000800089B988E98AB986E880BD089584E083BF8C
:1000900089B7816089BF089582E082BB8FEF88BBFA
:1000A00010BC83E389B988E98AB986E880BD84E019
:1000B00083BF89B7816089BF7894FFCF1F920F9269
:1000C0000FB60F9211248F9380916100882311F055
:1000D00086B38CB98F910F900FBE0F901F9018951B
:1000E0001F920F920FB60F9211248F939F939CB182
:1000F000909362009CB980916000882349F592300A
:10010000D9F0933028F4992341F0913009F50FC0CC
:100110009330B9F09430E1F418C010926500109259
:10012000630010926400109261008FEF8CB981E03F
:10013000809360008FEF8CB982E0809360008FEF36
:100140008CB981E0809361001CB8109261001CB8EA
:10015000809160008130B9F4923051F0933069F0B1
:10016000913009F03FC08FEF8CB983E0809360003D
:100170008FEF8CB984E0809360008FEF8CB985E0BD
:10018000809360002FC080916000823099F492309B
:1001900049F0933061F0913029F5809165008CB978
:1001A00010926000809163008CB910926000809181
:1001B000640015C080916000833019F4909365004D
:1001C0000DC080916000843019F49093630006C0E4
:1001D00080916000853031F4909364008FEF8CB98A
:1001E000109260009F918F910F900FBE0F901F9003
:0601F0001895F894FFCF02
:00000001FF
