:100000000C942A000C9447000C9447000C94470071
:100010000C9447000C9447000C9447000C941B0769
:100020000C9447000C9447000C94E7090C9447008B
:100030000C9447000C9447000C9447000C94470024
:100040000C9447000C9447000C9447000C94470014
:100050000C94470011241FBECFE5D8E0DEBFCDBF12
:1000600011E0A0E6B0E0EAE1FEE202C005900D92E8
:10007000A438B107D9F711E0A4E8B1E001C01D929E
:10008000AA39B107E1F70E9473130C940B170C9473
:100090000000EF92FF920F931F937B018C0120E0F1
:1000A00030E040E05FE40E94490388238CF0C801FF
:1000B000B70120E030E040E05FE40E94C1010E940F
:1000C000A9039B01AC01205030404040504806C07D
:1000D000C801B7010E94A9039B01AC01B901CA0183
:1000E0001F910F91FF90EF900895A0E0B0E0EBE733
:1000F000F0E00C942814DC012B01FA019C91923061
:1001000008F439C1EB018881823008F433C194309E
:1001100069F4843009F02FC111969C91119789815F
:10012000981709F428C1AAE7B0E025C1843009F482
:1001300021C18230A9F4923009F01DC19A01AD01AC
:1001400088E0EA010990AE01E90109929E0181501F
:10015000C1F7E201898111969C918923818308C1AD
:10016000923009F407C112962D903C901397EB0141
:100170008A819B811496AD90BD90CD90DC901797AD
:10018000EC80FD800E811F819101281B390BB90184
:1001900037FF04C066277727621B730B6032710537
:1001A0000CF061C0121613066CF537014801062EDB
:1001B00004C096948794779467940A94D2F721E0C8
:1001C00030E040E050E004C0220F331F441F551FB1
:1001D0006A95D2F721503040404050402E213F21B7
:1001E00040235123211531054105510521F021E01E
:1001F00030E040E050E079018A01E628F72808293C
:1002000019293CC0232BD1F1260E371E350146019A
:10021000062E04C096948794779467940A94D2F734
:1002200021E030E040E050E004C0220F331F441FC3
:10023000551F6A95D2F721503040404050402A2146
:100240003B214C215D21211531054105510521F04E
:1002500021E030E040E050E059016A01A628B728CB
:10026000C828D9280BC0821593052CF01C01AA249C
:10027000BB24650103C0EE24FF24870111969C91E5
:10028000D20111968C91981709F445C0992339F041
:10029000A80197012A193B094C095D0906C0A6016E
:1002A00095012E193F09400B510B57FD08C01182D3
:1002B0003382228224833583468357831DC081E0A5
:1002C00081833382228288279927DC01821B930B4A
:1002D000A40BB50B84839583A683B7830DC0220F2F
:1002E000331F441F551F24833583468357838281E0
:1002F000938101979383828324813581468157813D
:10030000DA01C9010197A109B1098F5F9F4FAF4F72
:10031000BF4328F30BC0918333822282EA0CFB1C7B
:100320000C1D1D1DE482F5820683178383E0808304
:10033000248135814681578157FF1AC0C901AA27F8
:1003400097FDA095BA2F81709070A070B0705695EF
:10035000479537952795822B932BA42BB52B848318
:100360009583A683B7838281938101969383828349
:10037000DF0101C0D201CD01CDB7DEB7E2E10C94BF
:100380004414A0E2B0E0E7ECF1E00C94341469838B
:100390007A838B839C832D833E834F835887E9E048
:1003A000EE2EF12CEC0EFD1ECE010196B7010E943F
:1003B0009A058E010F5E1F4FCE010596B8010E946F
:1003C0009A058A8991E089278A8BC701B801AE0115
:1003D000475E5F4F0E9475000E94C504A096E6E04C
:1003E0000C945014A0E2B0E0E8EFF1E00C94341467
:1003F00069837A838B839C832D833E834F835887C5
:10040000F9E0EF2EF12CEC0EFD1ECE010196B701A6
:100410000E949A058E010F5E1F4FCE010596B8010E
:100420000E949A05C701B801AE01475E5F4F0E9466
:1004300075000E94C504A096E6E00C945014A0E25A
:10044000B0E0E5E2F2E00C94281469837A838B83B0
:100450009C832D833E834F835887CE010196BE0136
:10046000675F7F4F0E949A05CE010596BE016F5EC1
:100470007F4F0E949A059985923088F08989823051
:10048000C8F0943019F4823051F404C0843029F457
:10049000923081F48AE790E0C6C0923049F420E0BF
:1004A0009A858A89981321E02A87CE010996BBC0D4
:1004B000823049F420E09A858A89981321E02A8BBA
:1004C000CE014196B0C02D843E844F8458886D88FB
:1004D0007E888F88988CEE24FF248701AA24BB2471
:1004E000650140E050E060E070E0E0E0F0E0C10174
:1004F00081709070892BE9F0E60CF71C081D191D1E
:100500009A01AB012A0D3B1D4C1D5D1D80E090E062
:10051000A0E0B0E0E614F7040805190520F481E036
:1005200090E0A0E0B0E0BA01A901480F591F6A1F8E
:100530007B1FAA0CBB1CCC1CDD1C97FE08C081E0F5
:1005400090E0A0E0B0E0A82AB92ACA2ADB2A3196B6
:10055000E032F10549F0660C771C881C991C569412
:10056000479437942794C3CFFA85EA892B893C892D
:100570008B859C85280F391F2E5F3F4F17C0CA01FE
:1005800081709070892B61F016950795F794E79428
:1005900080E090E0A0E0B0E8E82AF92A0A2B1B2BC3
:1005A00076956795579547952F5F3F4F77FDE7CF36
:1005B0000CC0440F551F661F771F17FD4160EE0CDE
:1005C000FF1C001F111F21503040403090E05907A0
:1005D00090E0690790E4790760F32B8F3C8FDB0193
:1005E000CA018F779070A070B07080349105A1051A
:1005F000B10561F447FD0AC0E114F10401051105DC
:1006000029F0405C5F4F6F4F7F4F40781A8EFE1786
:1006100011F081E08A8F4D8F5E8F6F8F78A383E01A
:10062000898FCE0149960E94C504A096E2E10C9400
:100630004414A8E1B0E0EFE1F3E00C9434146983D2
:100640007A838B839C832D833E834F83588789E0F5
:10065000E82EF12CEC0EFD1ECE010196B7010E9492
:100660009A058E010F5E1F4FCE010596B8010E94BC
:100670009A058985823040F08989823028F0C70147
:10068000B8010E94120601C08FEF6896E6E00C9454
:100690005014A8E1B0E0EFE4F3E00C943414698363
:1006A0007A838B839C832D833E834F83588789E095
:1006B000E82EF12CEC0EFD1ECE010196B7010E9432
:1006C0009A058E010F5E1F4FCE010596B8010E945C
:1006D0009A058985823040F08989823028F0C701E7
:1006E000B8010E94120601C08FEF6896E6E00C94F4
:1006F0005014A8E1B0E0EFE7F3E00C943414698300
:100700007A838B839C832D833E834F83588789E034
:10071000E82EF12CEC0EFD1ECE010196B7010E94D1
:100720009A058E010F5E1F4FCE010596B8010E94FB
:100730009A058985823040F08989823028F0C70186
:10074000B8010E94120601C081E06896E6E00C94B0
:100750005014ACE0B0E0EFEAF3E00C943814698395
:100760007A838B839C83CE010196BE016B5F7F4FA2
:100770000E949A058D81823061F1823050F184307F
:1007800021F48E81882351F12EC02F81388537FDC9
:1007900020C06E812F3131051CF06623F9F023C093
:1007A0008EE190E0821B930B29853A854B855C8511
:1007B00004C056954795379527958A95D2F76623B5
:1007C000B1F050954095309521953F4F4F4F5F4F79
:1007D0000EC020E030E040E050E009C02FEF3FEFD6
:1007E0004FEF5FE704C020E030E040E050E8B9019F
:1007F000CA012C96E2E00C945414A8E0B0E0E3E0C7
:10080000F4E00C9430147B018C01611571058105B5
:10081000910519F482E0898360C083E089838EE1C9
:10082000C82ED12CDC82CB82ED82FE820F8318870A
:10083000C801B7010E947604FC013197F7FF3BC065
:10084000222733272E1B3F0B57016801022E04C0BD
:10085000D694C794B794A7940A94D2F740E050E096
:1008600060E070E081E090E0A0E0B0E004C0880FBC
:10087000991FAA1FBB1F2A95D2F70197A109B10999
:100880008E219F21A023B1230097A105B10521F05E
:1008900041E050E060E070E04A295B296C297D2945
:1008A0004D835E836F8378878EE190E08E1B9F0B74
:1008B0009C838B8312C0309781F00E2E04C0EE0C07
:1008C000FF1C001F111F0A94D2F7ED82FE820F83D6
:1008D0001887CE1ADF0ADC82CB821A82CE010196FB
:1008E0000E94C5042896EAE00C944C14EF92FF9203
:1008F0000F931F937B018C0180E0E81680E0F806DF
:1009000081E0080780E0180788F48FEFE816F1040B
:100910000105110531F028F088E090E0A0E0B0E09A
:1009200017C080E090E0A0E0B0E012C080E0E816E0
:1009300080E0F80680E0080781E0180728F088E1E9
:1009400090E0A0E0B0E004C080E190E0A0E0B0E082
:1009500020E230E040E050E0281B390B4A0B5B0BF3
:1009600004C016950795F794E7948A95D2F7F70196
:10097000EE57FF4F8081281B310941095109C901F8
:100980001F910F91FF90EF900895DF92EF92FF92E9
:100990000F931F93FC01E480F58006811781D180BD
:1009A0008081823048F480E090E0A0E1B0E0E82A65
:1009B000F92A0A2B1B2BA5C0843009F49FC0823072
:1009C00021F4EE24FF24870105C0E114F1040105A0
:1009D000110519F4E0E0F0E096C0628173819FEFA9
:1009E000623879070CF05BC022E83FEF261B370B1B
:1009F0002A3131052CF020E030E040E050E02AC000
:100A0000B801A701022E04C07695679557954795C2
:100A10000A94D2F781E090E0A0E0B0E004C0880F33
:100A2000991FAA1FBB1F2A95D2F70197A109B109E7
:100A30008E219F21A023B1230097A105B10521F0AC
:100A400081E090E0A0E0B0E09A01AB01282B392BC7
:100A50004A2B5B2BDA01C9018F779070A070B070C0
:100A600080349105A105B10539F427FF09C0205C48
:100A70003F4F4F4F5F4F04C0215C3F4F4F4F5F4F81
:100A8000E0E0F0E02030A0E03A07A0E04A07A0E470
:100A90005A0710F0E1E0F0E079018A0127C06038E0
:100AA000710564F5FB01E158FF4FD801C7018F774D
:100AB0009070A070B07080349105A105B10539F433
:100AC000E7FE0DC080E490E0A0E0B0E004C08FE35A
:100AD00090E0A0E0B0E0E80EF91E0A1F1B1F17FF10
:100AE00005C016950795F794E794319687E016951B
:100AF0000795F794E7948A95D1F705C0EE24FF2473
:100B00008701EFEFF0E06E2F679566276795902FCE
:100B10009F77D794DD24D7948E2F8695492F462B27
:100B2000582F5D29B701CA011F910F91FF90EF90D7
:100B3000DF900895FC01DB01408151812281622F09
:100B40006F7770E0221F2227221F9381892F880F41
:100B5000822B282F30E0991F9927991F11969C937B
:100B6000119721153105A9F541155105610571054B
:100B700011F482E037C082E89FEF13969C938E9326
:100B800012979A01AB0167E0220F331F441F551FD4
:100B90006A95D1F783E08C930DC0220F331F441F59
:100BA000551F12968D919C911397019713969C93C4
:100BB0008E931297203080E0380780E0480780E469
:100BC000580758F314962D933D934D935C931797C4
:100BD00008952F3F310579F44115510561057105DF
:100BE00019F484E08C93089564FF03C081E08C9332
:100BF00012C01C9210C02F57304013963C932E9376
:100C0000129783E08C9387E0440F551F661F771F70
:100C10008A95D1F7706414964D935D936D937C9390
:100C2000179708951F93DC01FB019C91923008F403
:100C300047C08081823008F443C0943051F411964B
:100C40001C91843099F58181682F70E0611B7109D6
:100C50003FC0843021F0923031F48230B9F181818B
:100C6000882389F12DC011961C9111978230F1F0E3
:100C700081811817D9F412962D913C911397828196
:100C800093818217930794F028173907BCF01496C4
:100C90008D919D910D90BC91A02D2481358146812F
:100CA0005781281739074A075B0718F4112341F0C9
:100CB0000AC082179307A407B50740F4112319F05F
:100CC00061E070E005C06FEF7FEF02C060E070E0B0
:100CD000CB011F91089511B882E080B90895282FA3
:100CE00084EA86BF8FEF9FEF03C006B607FC03C000
:100CF0000197D9F71DC081B1887F883011F080310C
:100D0000B9F423B984E886BF8FEF9FEF03C006B61E
:100D100007FC03C00197D9F70BC091B1987F9831B8
:100D200011F480E0089580E0903419F081E0089596
:100D300081E0089544EA34E824E946BF06B607FE98
:100D4000FDCF91B1987F983011F09031B1F783B910
:100D500036BF06B607FEFDCF91B1987F903211F0F5
:100D6000983529F426BF06B604FCFDCFE6CF0895DA
:100D70000E946F06089584E986BF8FEF9FEF03C03E
:100D800006B604FE02C00197D9F7089583B984E836
:100D900086BF8FEF9FEF03C006B607FC03C0019725
:100DA000D9F705C081B190E0887F883209F091E0E1
:100DB000892F089584EC86BF8FEF9FEF05C006B69C
:100DC00007FE02C083B108950197C9F780E0089536
:100DD00084E886BF8FEF9FEF05C006B607FE02C00E
:100DE00083B108950197C9F780E008951F9310E03B
:100DF000812F880F0E946F060E94BB061F5F10386C
:100E0000B9F71F91089520E12FBD85E08EBD8AE7D7
:100E100090E09BBD8ABD29BF08958FB7F8942091BB
:100E200084013091850140918601509187018FBFE7
:100E3000B901CA0108951F920F920FB60F921124A3
:100E40008F939F93AF93BF93809188019091890175
:100E5000A0918A01B0918B010196A11DB11D8093D3
:100E6000880190938901A0938A01B0938B018091AE
:100E7000840190918501A0918601B09187010F9620
:100E8000A11DB11D8093840190938501A0938601DB
:100E9000B093870190918C01892F835A80938C01A4
:100EA0008D37B0F0905290938C0180918401909195
:100EB0008501A0918601B09187010196A11DB11D08
:100EC0008093840190938501A0938601B09387015C
:100ED000BF91AF919F918F910F900FBE0F901F9078
:100EE000189580FF02C0D89A01C0D89881FF02C02F
:100EF000D99A01C0D99882FF02C0DA9A01C0DA9863
:100F000083FF02C0DB9A0895DB9808951F93182F82
:100F1000C19A82958F700E947107C198C19A812FE2
:100F20000E947107C19885E88A95F1F71F9108958D
:100F3000C0980E9486070895C09A0E948607089567
:100F4000CF93DF93EC0103C021960E949C07888118
:100F50008823D1F7DF91CF9108956295660F660FD0
:100F6000607C680F862F80680E949807089581E052
:100F70000E94980780EA9FE00197F1F7089582E0C8
:100F80000E94980780EA9FE00197F1F708951F9368
:100F9000CF93DF93D09AD19AD29AD39AB99AB89A2A
:100FA00080E395E70197F1F7C098C19810E0C0E1A0
:100FB000D7E2C19A83E00E947107C198CE010197E0
:100FC000F1F71F5F1330A9F7C19A82E00E94710701
:100FD000C19880ED97E00197F1F788E20E949807A9
:100FE00088E00E94980781E00E94980780EA9FE0CD
:100FF0000197F1F786E00E9498078CE00E9498071D
:10100000DF91CF911F91089583B7886083BF83B725
:10101000846083BF82E38CBF89B7826089BF789484
:101020000895CF92DF92EF92FF921F936B017C01A4
:10103000142F0E940408113009F042C0D49AD59AA6
:101040008A9A8B9A20E030E040E050E080918D0158
:10105000882309F4939880918D01813009F4DD9AF9
:1010600080918D01823009F4DC9880918D0183306C
:1010700009F4929A80918D01843009F4DD98809171
:101080008D01853009F4939A80918D01863009F4A1
:10109000929880918D01873009F4DC9A80918D01BE
:1010A0008830A0F210928D012F5F3F4F4F4F5F4F5E
:1010B000C216D306E406F50648F6DC98939844C0B9
:1010C000123009F041C0A49AA59AA69AA79A20E0E6
:1010D00030E040E050E080918D01882309F4AF9822
:1010E00080918D01813009F4AD9A80918D0182301B
:1010F00009F4AC9880918D01833009F4AE9A809107
:101100008D01843009F4AD9880918D01853009F40A
:10111000AF9A80918D01863009F4AE9880918D014F
:10112000873009F4AC9A80918D018830A0F210923A
:101130008D012F5F3F4F4F4F5F4FC216D306E4061E
:10114000F50648F6AC98AF981F91FF90EF90DF90AE
:10115000CF900895CF92DF92EF92FF921F936B0191
:101160007C01142F0E940408113009F041C0D49A68
:10117000D59A8A9A8B9A20E030E040E050E0809146
:101180008D01882309F4DC9880918D01813009F468
:10119000929A80918D01823009F4939880918D010B
:1011A000833009F4DD9A80918D01843009F492989E
:1011B00080918D01853009F4DC9A80918D01863013
:1011C00009F4DD9880918D01873009F4939A80911C
:1011D0008D018830A0F210928D012F5F3F4F4F4F4D
:1011E0005F4FC216D306E406F50648F6DC9844C005
:1011F000123009F041C0A49AA59AA69AA79A20E0B5
:1012000030E040E050E080918D01882309F4AC98F3
:1012100080918D01813009F4AE9A80918D018230E8
:1012200009F4AF9880918D01833009F4AD9A8091D3
:101230008D01843009F4AE9880918D01853009F4D8
:10124000AC9A80918D01863009F4AD9880918D0122
:10125000873009F4AF9A80918D018830A0F2109206
:101260008D012F5F3F4F4F4F5F4FC216D306E406ED
:10127000F50648F6AC98AF981F91FF90EF90DF907D
:10128000CF900895EF92FF920F931F937B018C01F3
:101290000E940408D09AD19AD29AD39A89E0EE0C8F
:1012A000FF1C001F111F8A95D1F7C801B70128E65E
:1012B00031E040E050E00E94061479018A0120E00C
:1012C00030E040E050E080918D01882311F4D89AFD
:1012D000DA9880918D01813011F4D99ADB98809150
:1012E0008D01823011F4DA9AD89880918D01833083
:1012F00011F4DB9AD99880918D01843020F31092FB
:101300008D012F5F3F4F4F4F5F4FE216F3060407EB
:101310001507C8F61F910F91FF90EF900895EF9277
:10132000FF920F931F937B018C010E940408A49AE3
:10133000A59AA69AA79A20E030E040E050E080917C
:101340008D01882311F4AF9AAD9880918D01813081
:1013500011F4AE9AAC9880918D01823011F4AD9A5F
:10136000AF9880918D01833011F4AC9AAE98809142
:101370008D01843020F310928D012F5F3F4F4F4F2E
:101380005F4FE216F30604071507C8F61F910F9189
:10139000FF90EF900895CF93DF93C1E0D0E062E03B
:1013A00070E080E090E041E00E94110862E070E0AF
:1013B00080E090E042E00E941108219681E0C13077
:1013C000D80769F780E090E0DF91CF9108951F92F0
:1013D0000F920FB60F9211248F9380918D018F5F22
:1013E00080938D018F910F900FBE0F901F901895D5
:1013F000809182010895809190011092900108954A
:1014000090938F0180938E01089580918E01909129
:101410008F010895009719F420E030E019C001977A
:101420009C0140E050E060E070E006C056954795B2
:10143000379527956F5F7F4FDA01C901807000975C
:10144000A105B10599F73070962F8827282B392BE5
:10145000C9010895AF92BF92CF92DF92EF92FF92AF
:101460000F931F935C0170E080E090E020E03FE28A
:101470004AE350E00E94E7136C507E4F8F4F9F4F1E
:1014800028EE33E040E050E00E94061479018A0122
:10149000CC24DD24C801B701A60195010E94E71301
:1014A00016950795F794E7946E0D7F1D801F911F89
:1014B00028EE33E040E050E00E940614CA01B90172
:1014C0001F910F91FF90EF90DF90CF90BF90AF9062
:1014D00008956F927F928F929F92AF92BF92CF9218
:1014E000DF92EF92FF920F931F933B014C0150E06C
:1014F00060E070E0CB01BA0120E03FE24AE350E057
:101500000E94E7136C507E4F8F4F9F4F28EE33E0C1
:1015100040E050E00E94061479018A0157016801F9
:10152000D694C794B794A794C401B30128EE33E0CE
:1015300040E050E00E94E713A60EB71EC81ED91E59
:10154000C601B501A80197010E940614CA01B9019C
:101550001F910F91FF90EF90DF90CF90BF90AF90D1
:101560009F908F907F906F900895EF92FF920F93CE
:101570001F93CF93DF93182F7B01042F809182015B
:101580000E946F06812F0E94C606809182018160B1
:101590000E94B806E7010AC0023018F00E94DA067D
:1015A00002C00E94E8068883015021960023A1F71B
:1015B0000E94BB06DF91CF911F910F91FF90EF909A
:1015C00008950F931F93CF93DF93182FEB01042FF0
:1015D000809182010E946F06812F0E94C60604C07E
:1015E00089910E94C60601500023D1F70E94BB06D4
:1015F000DF91CF911F910F9108956F927F928F92FB
:101600009F92AF92BF92CF92DF92EF92FF920F9391
:101610001F93182F809182010E946F06812F0E94D4
:10162000C6068091820181600E94B8060E94DA0697
:10163000682E772488249924962C8824772466247D
:101640000E94DA06A82E0E94DA06E82E0E94E8061A
:10165000BB24CC24DD246501BB24AA246A287B2872
:101660008C289D2890E0A0E0B0E0682A792A8A2A98
:101670009B2A0E94BB06FF2400E010E0102F0F2DD4
:10168000FE2CEE24E628F72808291929B701C801FD
:101690001F910F91FF90EF90DF90CF90BF90AF9090
:1016A0009F908F907F906F900895EF92FF920F938D
:1016B0001F93182F809182010E946F06812F0E9434
:1016C000C6068091820181600E94B8060E94DA06F7
:1016D000F82EEE240E94E806082F0E94BB0610E0B8
:1016E0000E291F29C8011F910F91FF90EF900895B7
:1016F00084E40E94550BA0E0B0E0BC01CD010E9443
:10170000FD0320E030E040E05CE30E941F0208950A
:101710001F93182F809182010E946F06812F0E94D3
:10172000C6068091820181600E94B8060E94E80688
:10173000182F0E94BB06812F1F9108950F931F93AE
:101740008C0181E00E94880B982F92959170F8018E
:101750009083982F96959695969591709283982F51
:1017600096959695917091838295869586958370CE
:10177000982F91709383869584831F910F9108957C
:10178000882331F480E50E94880B8F5F880F0895CD
:10179000813011F08FEF089580E70E94880B8F5FF2
:1017A000880F08950F931F93CF93DF938C01EB0164
:1017B00080E00E94C00B8883198286E40E94880B17
:1017C00090E001969D838C8368810E942A0A6A8733
:1017D0007B878C879D8781E50E94550B282F30E001
:1017E00002C0220F331F9A95E2F72F5F3F4F3F83CE
:1017F0002E83C90168810E942A0A6E877F87888BA1
:10180000998B81E00E94C00B8A831B8281E70E9432
:10181000550B282F30E002C0220F331F9A95E2F7B4
:101820002F5F3F4F39872887F8018381882331F064
:101830008E819F81281B390B398728878885998558
:101840006A810E942A0A6A8B7B8B8C8B9D8BDF912D
:10185000CF911F910F9108950F931F93DF93CF9313
:10186000CDB7DEB76B970FB6F894DEBF0FBECDBF16
:101870008E010F5F1F4FC8010E949E0BC801BE0161
:101880006A5F7F4F0E94D20B8981882329F426E367
:101890003BE040E050E008C0288939894A895B89EB
:1018A0002C57324F4F4F5F4F8B81882369F08889C7
:1018B0009989AA89BB898E549D4FAF4FBF4F880F1E
:1018C000991FAA1FBB1F0BC08A81882361F08889DA
:1018D0009989AA89BB898C569D4FAF4FBF4F280F5E
:1018E000391F4A1F5B1F8C81882361F08C899D8979
:1018F000AE89BF898C569D4FAF4FBF4F280F391F00
:101900004A1F5B1F8D81882361F0888D998DAA8D78
:10191000BB8D8A5D9D4FAF4FBF4F280F391F4A1FA8
:101920005B1F20939401309395014093960150934F
:101930009701B901CA016B960FB6F894DEBF0FBECE
:10194000CDBFCF91DF911F910F910895DF92EF925C
:10195000FF920F931F93D82E7A018B018091820101
:101960000E946F068D2D0E94C606812F9927AA27F7
:10197000BB270E94C606C801AA27BB270E94C6062D
:10198000BB27A12F902F8F2D0E94C6068E2D0E945F
:10199000C6060E94BB061F910F91FF90EF90DF904B
:1019A0000895FF920F931F93182FF62E072F809103
:1019B00082010E946F06812F0E94C606802F0E941E
:1019C000C6068F2D0E94C6060E94BB061F910F916E
:1019D000FF900895CF92DF92EF92FF920F931F93A3
:1019E000DF93CF93CDB7DEB76B970FB6F894DEBF1A
:1019F0000FBECDBF6B017C0160322EE4720720E088
:101A0000820720E0920708F47AC08E010F5F1F4F13
:101A1000C8010E949E0BC801BE016A5F7F4F0E94F1
:101A2000D20B8981882329F428EE38E040E050E089
:101A300008C0288939894A895B892A5C344F4F4F0D
:101A40005F4F8B81882369F088899989AA89BB892E
:101A50008E549D4FAF4FBF4F880F991FAA1FBB1FBA
:101A60000BC08A81882361F088899989AA89BB89FA
:101A70008C569D4FAF4FBF4F280F391F4A1F5B1F1A
:101A80000C81002361F08C899D89AE89BF898C56B9
:101A90009D4FAF4FBF4F280F391F4A1F5B1F8D81CE
:101AA000882359F1DA01C9018A5D9D4FAF4FBF4FBD
:101AB000C816D906EA06FB0610F1A7019601281BF5
:101AC000390B4A0B5B0BCA01B90148850E94690AB0
:101AD000002321F08C859D85680F791FCB010E9422
:101AE0000A0ABC0181E70E94D10CC0929401D092F5
:101AF0009501E0929601F092970181E001C080E0AB
:101B00006B960FB6F894DEBF0FBECDBFCF91DF91BD
:101B10001F910F91FF90EF90DF90CF900895EF927B
:101B2000FF920F931F937B018C0120E030E040E097
:101B300050E00E94790387FD1CC0C801B70128EB63
:101B40003EEF4FEF53E40E941903181694F0C801BA
:101B5000B70120E030E040E053E40E941F020E9401
:101B600049009B01AC0184E4B9010E94D10C81E0E1
:101B700001C080E01F910F91FF90EF9008950F93A7
:101B80001F93182F062F809182010E946F06812FCC
:101B90000E94C606802F0E94C6060E94BB061F91A7
:101BA0000F910895682F616080E00E94BF0D0E9430
:101BB0000D07709392016093910117C080918E017F
:101BC00090918F01892B89F00E940D07209191013E
:101BD00030919201621B730B20918E0130918F0125
:101BE0002617370710F480E0089583E10E94880BE0
:101BF00090E087709070892B09F38BE061E00E9480
:101C0000BF0D80E060E00E94BF0D81E008950F935A
:101C10001F93CF93DF93EC018B0180E861E00E947A
:101C2000BF0D8FEF61E00E94BF0D80E060E00E9479
:101C3000BF0D8FEF66E00E94BF0D83E80E94880B06
:101C4000682F646083E80E94BF0D8FEF67E00E94F9
:101C5000BF0D81E861E00E94BF0D80E861E00E9455
:101C6000BF0D84E96BE60E94BF0D83E860E00E942F
:101C7000BF0D0E940D07709392016093910117C0F0
:101C800080918E0190918F01892B89F00E940D0720
:101C90002091910130919201621B730B20918E0172
:101CA00030918F012617370710F480E035C083E8A4
:101CB0000E94880B882321F383E861E00E94BF0D16
:101CC00082E90E94880B982F9F779883881F882726
:101CD000881FF801808381E860E00E94BF0D8FEFCC
:101CE00066E00E94BF0D83E80E94880B682F6B7F1F
:101CF00083E80E94BF0D8FEF61E00E94BF0D80E07E
:101D000061E00E94BF0D8FEF60E00E94BF0D80E890
:101D100060E00E94BF0D81E0DF91CF911F910F9194
:101D20000895EF92FF920F931F93DF93CF93CDB758
:101D3000DEB72C970FB6F894DEBF0FBECDBF7C0187
:101D40000E940D0770939201609391011BC08091D6
:101D50008E0190918F01892BA9F00E940D0720918F
:101D6000910130919201621B730B20918E01309191
:101D70008F012617370730F481E0809390010FEF31
:101D80001FEF42C083E10E94880B90E08770907043
:101D9000892BE9F2E114F10429F48EE10E94550B3C
:101DA0008C012EC084E1BE016F5F7F4F4CE00E942A
:101DB000B50A8981869586958695F70180879B81EE
:101DC00080E02C8130E0822B932B978386839F8148
:101DD00080E0288530E0822B932B93838283998542
:101DE00080E02A8530E0822B932B958384839B852A
:101DF00080E02C85022F10E0082B192B1183008323
:101E00008BE061E00E94BF0DC8012C960FB6F894DC
:101E1000DEBF0FBECDBFCF91DF911F910F91FF901D
:101E2000EF900895CF93DF93EC0180E861E00E948A
:101E3000BF0D8FEF61E00E94BF0D80E060E00E9467
:101E4000BF0D81E9609193010E94BF0D80E061E0C8
:101E50000E94BF0D8FEF60E00E94BF0D80E860E040
:101E60000E94BF0D80E061E00E94BF0D0E940D073F
:101E700070939201609391011BC080918E019091AB
:101E80008F01892BA9F00E940D07209191013091BB
:101E90009201621B730B20918E0130918F012617E6
:101EA000370730F481E0809390012FEF3FEF09C0B6
:101EB00080E00E94880B80FDE0CFCE010E94910E51
:101EC0009C01C901DF91CF91089580E061E00E94FB
:101ED000BF0D8FEF61E00E94BF0D80E060E00E94C7
:101EE000BF0D81E960E00E94BF0D80E061E00E94CB
:101EF000BF0D8FEF60E00E94BF0D0895EF92FF923B
:101F00000F931F937B018C0180E861E00E94BF0D5D
:101F10008FEF61E00E94BF0D80E060E00E94BF0D86
:101F200081E9609193010E94BF0D80E061E00E9411
:101F3000BF0D8FEF60E00E94BF0D80E860E00E945F
:101F4000BF0DE114F10401051105B1F088EF0E9405
:101F5000550B009749F09C0140E050E0C801B701E3
:101F60000E94E7137B018C0184E0B801A7010E9465
:101F7000A60C80E064E002C080E062E00E94BF0D39
:101F80001F910F91FF90EF900895EF92FF920F93A2
:101F90001F93DF93CF93CDB7DEB76B970FB6F8944F
:101FA000DEBF0FBECDBFF82E062FE62EE694EA94D4
:101FB000CE0101960E949E0BCE010196BE016A5F82
:101FC0007F4F0E94D20BFF2009F044C00E3079F001
:101FD0000F3020F40C3009F0D4C006C0003151F0AD
:101FE000023109F0CEC009C087E568E108C087E585
:101FF00060E305C087E560E402C087E560E50E9414
:10200000BF0D86E568E00E94BF0D80E56E2D0E9441
:10201000BF0D6C897D898E899F89402F0E94690A36
:10202000DC01CB010E940A0ABC0181E50E94D10CAF
:10203000688979898A899B89402F0E94690A81E091
:102040006130780710F06FEF01C0615086E40E94A4
:10205000BF0D7CC081E0F81609F093C00A3019F179
:102060000B3020F4083009F08CC006C00C3051F160
:102070000E3009F086C035C088E460E10E94BF0DD3
:1020800087E468E00E94BF0D82E362E00E94BF0D1A
:1020900080E36CE00E94BF0D8FEF61E00E94BF0DF6
:1020A00080E360E334C088E468E20E94BF0D87E407
:1020B00068E00E94BF0D82E363E00E94BF0D80E3F1
:1020C00069E01DC088E468E30E94BF0D87E468E012
:1020D0000E94BF0D82E363E00E94BF0D80E368E0D1
:1020E0000EC088E468E40E94BF0D87E468E00E94A7
:1020F000BF0D82E363E00E94BF0D80E367E00E94B2
:10210000BF0D8FEF61E00E94BF0D80E360E20E948F
:10211000BF0D8FEF60E00E94BF0D80E76E2D0E9423
:10212000BF0D688D798D8A8D9B8D402F0E94690A25
:102130008C81882321F08C859D85680F791FCB01C8
:102140000E940A0ABC0181E70E94D10C60919401AF
:102150007091950180919601909197010E94EA0CEF
:1021600081E00E94880B182F81E062E00E94BF0D81
:1021700080E00E94D20D81E0612F0E94BF0D81E0BE
:1021800001C080E06B960FB6F894DEBF0FBECDBFE6
:10219000CF91DF911F910F91FF90EF900895FF92E3
:1021A0000F931F93DF93CF93CDB7DEB728970FB66A
:1021B000F894DEBF0FBECDBF882341F089E80E94AE
:1021C000880B682F616089E80E94BF0D88E860E095
:1021D0000E94BF0D80E861E00E94BF0D8FEF61E0BB
:1021E0000E94BF0D80E060E00E94BF0D81E90E9467
:1021F000880B8093930180E061E00E94BF0D8FEF18
:1022000060E00E94BF0D80E860E00E94BF0D80E6A4
:102210000E94880B682F626180E60E94BF0D60E01B
:1022200070E080E89EE30E948F0D81E06FEF0E94D6
:10223000BF0DCE010196BE016E5F7F4F0E94070E5B
:10224000882309F4E1C180EBBE016D5F7F4F46E05A
:102250000E94B50A8FEF61E00E94BF0D8FE460E03D
:102260000E94BF0D8EE46CE20E94BF0D8FEF60E014
:102270000E94BF0D86EB64EB0E94BF0D8A8188230C
:1022800011F470E001C07CE0F98060E040E050E0D3
:10229000DE01139601E010E0842F471710F06F1550
:1022A000A9F4869586958695FD01E80FF11DCA0172
:1022B00087709070980102C0220F331F8A95E2F751
:1022C000C901809520818223808312C086958695DE
:1022D0008695FD01E80FF11D808190E09A0127703D
:1022E000307002C0959587952A95E2F780FD6F5F63
:1022F0004F5F5F4F4033510579F680EBBE016D5F54
:102300007F4F46E00E94E10A8FEF61E00E94BF0D1F
:1023100080E060E00E94BF0D8FEF60E00E94BF0D83
:1023200089E060E00E94BF0D80E160E00E94BF0D87
:1023300081E160E00E94BF0D84E261E00E94BF0D78
:1023400085E26FEF0E94BF0D85E760E00E94BF0D40
:102350008FEF61E00E94BF0D8EE46CE20E94BF0D22
:1023600088E460E00E94BF0D80E360E20E94BF0D40
:102370008FEF60E00E94BF0D80E369E00E94BF0D17
:1023800084E560E00E94BF0D81E364E00E94BF0D20
:1023900082E363E00E94BF0D80E463E80E94BF0D0A
:1023A00086E465E20E94BF0D80E660E00E94BF0DFA
:1023B00087E260E00E94BF0D80E566E00E94BF0DED
:1023C00081E560E00E94BF0D82E566E90E94BF0DD5
:1023D00086E568E00E94BF0D87E560E30E94BF0DBF
:1023E00081E660E00E94BF0D82E660E00E94BF0DC2
:1023F00084E660E00E94BF0D85E660E00E94BF0DAC
:1024000086E660EA0E94BF0D8FEF61E00E94BF0D7B
:1024100082E262E30E94BF0D87E464E10E94BF0D87
:1024200089E46FEF0E94BF0D8AE460E00E94BF0D57
:102430008FEF60E00E94BF0D8AE76AE00E94BF0D47
:102440008BE760E00E94BF0D88E761E20E94BF0D4C
:102450008FEF61E00E94BF0D83E264E30E94BF0D35
:1024600082E460E00E94BF0D84E46FEF0E94BF0D24
:1024700085E466E20E94BF0D86E465E00E94BF0D20
:1024800080E460E40E94BF0D8EE066E00E94BF0D14
:1024900080E26AE10E94BF0D83E460E40E94BF0D08
:1024A0008FEF60E00E94BF0D84E363E00E94BF0DE8
:1024B00085E364E40E94BF0D8FEF61E00E94BF0DD1
:1024C00081E364E00E94BF0D8BE469E00E94BF0DD0
:1024D0008CE465E00E94BF0D8DE464E00E94BF0DB6
:1024E0008FEF60E00E94BF0D84E460E00E94BF0DAA
:1024F00085E460E20E94BF0D87E468E00E94BF0DA2
:1025000088E468E20E94BF0D87E660E00E94BF0D8C
:1025100080E764E00E94BF0D81E761E00E94BF0D8B
:1025200082E76EEF0E94BF0D86E760E00E94BF0D5C
:1025300087E760E00E94BF0D8FEF61E00E94BF0D52
:102540008DE061E00E94BF0D8FEF60E00E94BF0D43
:1025500080E861E00E94BF0D81E068EF0E94BF0D3E
:102560008FEF61E00E94BF0D8EE861E00E94BF0D19
:1025700080E061E00E94BF0D8FEF60E00E94BF0D20
:1025800080E860E00E94BF0D8AE064E00E94BF0D19
:1025900084E80E94880B682F6F7E84E80E94BF0D3C
:1025A0008BE061E00E94BF0D0E942C0C60939401AF
:1025B00070939501809396019093970181E068EE66
:1025C0000E94BF0D609194017091950180919601D8
:1025D000909197010E94EA0C81E061E00E94BF0D9A
:1025E00080E40E94D20D882379F081E062E00E94AD
:1025F000BF0D80E00E94D20D882331F081E068EEAB
:102600000E94BF0D81E001C080E028960FB6F894CB
:10261000DEBF0FBECDBFCF91DF911F910F91FF9015
:1026200008951F93182F682F66958AE80E94BF0DA2
:10263000109382011F9108955D9BFECF8CB9089580
:1026400020E004C05D9BFECFECB92F5FFC01E20FE0
:10265000F11DE081EE23B1F708955F9BFECF8CB1B1
:1026600008950F931F93DF93CF93CDB7DEB7649791
:102670000FB6F894DEBF0FBECDBF5F9BFECF9CB1FF
:10268000198280E09E012F5F3F4F08C05F9BFECF05
:10269000F901E80FF11D90839CB18F5F9D30B1F778
:1026A0008E010F5F1F4FF801E80FF11D1082C80166
:1026B00060E670E00E945F14109399010093980106
:1026C00064960FB6F894DEBF0FBECDBFCF91DF91F9
:1026D0001F910F91089583E085BB0E946B060E94B5
:1026E0000307789408958F929F92AF92BF92CF92F2
:1026F000DF92EF92FF920F931F93DF93CF93CDB7AB
:10270000DEB76D970FB6F894DEBF0FBECDBF0E9447
:102710006B1310BC83E389B988E18AB98EE880BD68
:1027200081E00E94CF1060E271EA87E090E00E94B1
:10273000EA0C0E94C7070E94BF074E010894811C43
:10274000911C2AE0C22ED12CCC0EDD1E93E6A92EC0
:1027500090E0B92E88ECE82EF12CC4010E94120FF3
:102760008C010E94B70780E060E00E94AD0700D0B6
:1027700000D000D0EDB7FEB73196ADB7BEB7129618
:10278000DC92CE921197B382A282158304830E94B9
:102790006A148DB79EB706960FB6F8949EBF0FBE0B
:1027A0008DBFC6010E94A00788EE93E0F701319724
:1027B000F1F70197D9F780E790E00E94201380E1BC
:1027C00097E2F7013197F1F70197D9F7C6CF629FEA
:1027D000D001739FF001829FE00DF11D649FE00D19
:1027E000F11D929FF00D839FF00D749FF00D659F7A
:1027F000F00D9927729FB00DE11DF91F639FB00D79
:10280000E11DF91FBD01CF0111240895A1E21A2E87
:10281000AA1BBB1BFD010DC0AA1FBB1FEE1FFF1F84
:10282000A217B307E407F50720F0A21BB30BE40BD4
:10283000F50B661F771F881F991F1A9469F760951B
:102840007095809590959B01AC01BD01CF010895D5
:102850002F923F924F925F926F927F928F929F92B0
:10286000AF92BF92CF92DF92EF92FF920F931F939E
:10287000CF93DF93CDB7DEB7CA1BDB0B0FB6F8944F
:10288000DEBF0FBECDBF09942A88398848885F848F
:102890006E847D848C849B84AA84B984C884DF8000
:1028A000EE80FD800C811B81AA81B981CE0FD11DE4
:1028B0000FB6F894DEBF0FBECDBFED010895FB014A
:1028C000DC010D900020E9F7119701900D92002096
:1028D000E1F70895AEE0B0E0E0E7F4E10C943614DF
:1028E0000D891E8986E08C831A8309838FEF9FE709
:1028F0009E838D839E01275E3F4FCE0101966F8997
:10290000788DA9010E948E142F813885020F131F24
:10291000F80110822E96E4E00C945214ABE0B0E083
:10292000E4E9F4E10C9428143C012B015A01FC0168
:1029300017821682838181FD03C06FEF7FEFC6C1CE
:102940009AE0892E1E010894211C311CF301238179
:10295000F20123FD859123FF81912F01882309F442
:10296000B2C1853239F423FD859123FF81912F0176
:10297000853229F490E0B3010E948116E7CF982FA9
:10298000FF24EE249924FFE1FF15D0F09B3269F07B
:102990009C3228F4903259F0933291F40EC09D325B
:1029A00049F0903369F441E024C052E0F52A84E014
:1029B000F82A28C098E0F92A25C0E0E1FE2A22C0C2
:1029C000F7FC29C0892F80538A3070F4F6FE05C0C9
:1029D000989C902C1124980E15C0E89CE02C112492
:1029E000E80EF0E2FF2A0EC09E3229F4F6FC6BC11D
:1029F00040E4F42A07C09C3619F450E8F52A02C0D6
:102A0000983649F4F20123FD959123FF91912F010E
:102A1000992309F0B8CF892F8554833018F080525C
:102A2000833038F444E050E0A40EB51E5FE35983D0
:102A30000FC0933631F0933779F0933509F056C0D3
:102A400020C0F5018081898342E050E0A40EB51ECC
:102A5000610101E010E012C0F501C080D180F6FCF8
:102A600003C06FEF7FEF02C0692D70E042E050E0DD
:102A7000A40EB51EC6010E9476168C015FE7F522F2
:102A800014C0F501C080D180F6FC03C06FEF7FEF6A
:102A900002C0692D70E042E050E0A40EB51EC601F0
:102AA0000E946B168C0150E8F52AF3FE07C01AC08D
:102AB00080E290E0B3010E948116EA948E2D90E0AE
:102AC00008171907A8F30EC0F601F7FC8591F7FE69
:102AD00081916F0190E0B3010E948116E110EA94A8
:102AE000015010400115110579F7EAC0943611F034
:102AF000993669F5F7FE08C0F501208131814281E0
:102B0000538184E090E00AC0F501808191819C01AD
:102B1000442737FD4095542F82E090E0A80EB91E5F
:102B20009FE6F92257FF09C05095409530952195B1
:102B30003F4F4F4F5F4FE0E8FE2ACA01B901A101A4
:102B40002AE030E00E94AD16D82ED21840C095374A
:102B500029F41F2D1F7E2AE030E01DC01F2D197F94
:102B60009F3661F0903720F4983509F0ACC00FC063
:102B7000903739F0983709F0A6C004C028E030E05B
:102B80000AC0106114FD146020E130E004C014FD9F
:102B9000166020E132E017FF08C0F5016081718105
:102BA0008281938144E050E008C0F50180819181E9
:102BB000BC0180E090E042E050E0A40EB51EA1010F
:102BC0000E94AD16D82ED2188FE7F82EF122F6FE0D
:102BD0000BC05EEFF522D91438F4F4FE07C0F2FC06
:102BE00005C08FEEF82202C01D2D01C0192DF4FE84
:102BF0000DC0FE01ED0DF11D8081803319F499EEB9
:102C0000F92208C01F5FF2FE05C003C08F2D867831
:102C100009F01F5F0F2DF3FC14C0F0FE0FC01E154E
:102C200010F09D2C0BC09D2C9E0C911A1E2D06C0E1
:102C300080E290E0B3010E9481161F5F1E15C0F371
:102C400004C01E1510F4E11A01C0EE2404FF0FC0E9
:102C500080E390E0B3010E94811602FF1DC001FDD8
:102C600003C088E790E00EC088E590E00BC0802F9D
:102C7000867891F001FF02C08BE201C080E2F7FC90
:102C80008DE290E0B3010E94811606C080E390E0DF
:102C9000B3010E9481169A94D914C0F3DA94F10119
:102CA000ED0DF11D808190E0B3010E948116DD20C1
:102CB000A9F706C080E290E0B3010E948116EA9471
:102CC000EE20C1F743CEF30166817781CB012B96CD
:102CD000E2E10C944414FC01059061507040011035
:102CE000D8F7809590958E0F9F1F0895FC01615035
:102CF000704001900110D8F7809590958E0F9F1F1E
:102D000008950F931F93CF93DF938C01EB018B8179
:102D100081FF1BC082FF0DC02E813F818C819D8170
:102D20002817390764F4E881F9810193F983E8836E
:102D300006C0E885F985802F0995892B31F48E81AD
:102D40009F8101969F838E8302C00FEF1FEFC80102
:102D5000DF91CF911F910F910895FA01AA27283092
:102D600051F1203181F1E8946F936E7F6E5F7F4F58
:102D70008F4F9F4FAF4FB1E03ED0B4E03CD0670FD4
:102D8000781F891F9A1FA11D680F791F8A1F911D27
:102D9000A11D6A0F711D811D911DA11D20D009F477
:102DA00068943F912AE0269F11243019305D3193B9
:102DB000DEF6CF010895462F4770405D4193B3E0A2
:102DC0000FD0C9F7F6CF462F4F70405D4A3318F049
:102DD000495D31FD4052419302D0A9F7EACFB4E0FA
:102DE000A6959795879577956795BA95C9F70097B2
:102DF0006105710508959B01AC010A2E0694579553
:102E0000479537952795BA95C9F7620F731F841FA9
:0A2E1000951FA01D0895F894FFCF50
:102E1A000A0D0020447A69616C613F202564200014
:102E2A00447A69616C613F0A0D00000000000000ED
:102E3A00000000010202030303030404040404045F
:102E4A00040405050505050505050505050505052A
:102E5A00050506060606060606060606060606060A
:102E6A0006060606060606060606060606060606F8
:102E7A0006060707070707070707070707070707DA
:102E8A0007070707070707070707070707070707C8
:102E9A0007070707070707070707070707070707B8
:102EAA0007070707070707070707070707070707A8
:102EBA00070708080808080808080808080808088A
:102ECA000808080808080808080808080808080878
:102EDA000808080808080808080808080808080868
:102EEA000808080808080808080808080808080858
:102EFA000808080808080808080808080808080848
:102F0A000808080808080808080808080808080837
:102F1A000808080808080808080808080808080827
:102F2A000808080808080808080808080808080817
:042F3A000808520031
:00000001FF
